{
  "_format": "hh-sol-artifact-1",
  "contractName": "UserIPFSStorage",
  "sourceName": "contracts/ReferPoolLottery.sol",
  "abi": [
    {
      "inputs": [],
      "stateMutability": "nonpayable",
      "type": "constructor"
    },
    {
      "anonymous": false,
      "inputs": [
        {
          "indexed": true,
          "internalType": "address",
          "name": "userAddress",
          "type": "address"
        },
        {
          "indexed": false,
          "internalType": "string",
          "name": "cid",
          "type": "string"
        }
      ],
      "name": "CIDAdded",
      "type": "event"
    },
    {
      "anonymous": false,
      "inputs": [
        {
          "indexed": true,
          "internalType": "address",
          "name": "userAddress",
          "type": "address"
        },
        {
          "indexed": false,
          "internalType": "string",
          "name": "name",
          "type": "string"
        }
      ],
      "name": "UserRegistered",
      "type": "event"
    },
    {
      "inputs": [
        {
          "internalType": "address",
          "name": "_userAddress",
          "type": "address"
        },
        {
          "internalType": "string",
          "name": "_cid",
          "type": "string"
        }
      ],
      "name": "addCIDForUser",
      "outputs": [],
      "stateMutability": "nonpayable",
      "type": "function"
    },
    {
      "inputs": [],
      "name": "admin",
      "outputs": [
        {
          "internalType": "address",
          "name": "",
          "type": "address"
        }
      ],
      "stateMutability": "view",
      "type": "function"
    },
    {
      "inputs": [
        {
          "internalType": "address",
          "name": "_newAdmin",
          "type": "address"
        }
      ],
      "name": "changeAdmin",
      "outputs": [],
      "stateMutability": "nonpayable",
      "type": "function"
    },
    {
      "inputs": [
        {
          "internalType": "address",
          "name": "_user",
          "type": "address"
        }
      ],
      "name": "getUser",
      "outputs": [
        {
          "internalType": "string",
          "name": "",
          "type": "string"
        },
        {
          "internalType": "string[]",
          "name": "",
          "type": "string[]"
        }
      ],
      "stateMutability": "view",
      "type": "function"
    },
    {
      "inputs": [
        {
          "internalType": "address",
          "name": "_user",
          "type": "address"
        }
      ],
      "name": "getUserCIDs",
      "outputs": [
        {
          "internalType": "string[]",
          "name": "",
          "type": "string[]"
        }
      ],
      "stateMutability": "view",
      "type": "function"
    },
    {
      "inputs": [
        {
          "internalType": "address",
          "name": "_user",
          "type": "address"
        }
      ],
      "name": "isRegistered",
      "outputs": [
        {
          "internalType": "bool",
          "name": "",
          "type": "bool"
        }
      ],
      "stateMutability": "view",
      "type": "function"
    },
    {
      "inputs": [
        {
          "internalType": "address",
          "name": "_userAddress",
          "type": "address"
        },
        {
          "internalType": "string",
          "name": "_name",
          "type": "string"
        }
      ],
      "name": "registerUser",
      "outputs": [],
      "stateMutability": "nonpayable",
      "type": "function"
    }
  ],
  "bytecode": "0x608060405234801561001057600080fd5b5033600160006101000a81548173ffffffffffffffffffffffffffffffffffffffff021916908373ffffffffffffffffffffffffffffffffffffffff1602179055506115f5806100616000396000f3fe608060405234801561001057600080fd5b506004361061007d5760003560e01c80638f2839701161005b5780638f283970146100ff578063c3c5a5471461011b578063ca7306df1461014b578063f851a440146101675761007d565b80630ea126f9146100825780636f77926b1461009e578063858c5616146100cf575b600080fd5b61009c60048036038101906100979190610cd5565b610185565b005b6100b860048036038101906100b39190610d35565b6103ea565b6040516100c6929190610efe565b60405180910390f35b6100e960048036038101906100e49190610d35565b610665565b6040516100f69190610f35565b60405180910390f35b61011960048036038101906101149190610d35565b61080f565b005b61013560048036038101906101309190610d35565b610952565b6040516101429190610f72565b60405180910390f35b61016560048036038101906101609190610cd5565b6109aa565b005b61016f610be2565b60405161017c9190610f9c565b60405180910390f35b600160009054906101000a900473ffffffffffffffffffffffffffffffffffffffff1673ffffffffffffffffffffffffffffffffffffffff163373ffffffffffffffffffffffffffffffffffffffff1614610215576040517f08c379a000000000000000000000000000000000000000000000000000000000815260040161020c90611003565b60405180910390fd5b6000808473ffffffffffffffffffffffffffffffffffffffff1673ffffffffffffffffffffffffffffffffffffffff16815260200190815260200160002060020160009054906101000a900460ff16156102a4576040517f08c379a000000000000000000000000000000000000000000000000000000000815260040161029b9061106f565b60405180910390fd5b600082829050116102ea576040517f08c379a00000000000000000000000000000000000000000000000000000000081526004016102e1906110db565b60405180910390fd5b81816000808673ffffffffffffffffffffffffffffffffffffffff1673ffffffffffffffffffffffffffffffffffffffff168152602001908152602001600020600001918261033a92919061134b565b5060016000808573ffffffffffffffffffffffffffffffffffffffff1673ffffffffffffffffffffffffffffffffffffffff16815260200190815260200160002060020160006101000a81548160ff0219169083151502179055508273ffffffffffffffffffffffffffffffffffffffff167f48cac28ad4dc618e15f4c2dd5e97751182f166de97b25618318b2112aa951a2f83836040516103dd929190611457565b60405180910390a2505050565b6060806000808473ffffffffffffffffffffffffffffffffffffffff1673ffffffffffffffffffffffffffffffffffffffff16815260200190815260200160002060020160009054906101000a900460ff1661047b576040517f08c379a0000000000000000000000000000000000000000000000000000000008152600401610472906114c7565b60405180910390fd5b6000808473ffffffffffffffffffffffffffffffffffffffff1673ffffffffffffffffffffffffffffffffffffffff1681526020019081526020016000206000016000808573ffffffffffffffffffffffffffffffffffffffff1673ffffffffffffffffffffffffffffffffffffffff16815260200190815260200160002060010181805461050990611164565b80601f016020809104026020016040519081016040528092919081815260200182805461053590611164565b80156105825780601f1061055757610100808354040283529160200191610582565b820191906000526020600020905b81548152906001019060200180831161056557829003601f168201915b5050505050915080805480602002602001604051908101604052809291908181526020016000905b828210156106565783829060005260206000200180546105c990611164565b80601f01602080910402602001604051908101604052809291908181526020018280546105f590611164565b80156106425780601f1061061757610100808354040283529160200191610642565b820191906000526020600020905b81548152906001019060200180831161062557829003601f168201915b5050505050815260200190600101906105aa565b50505050905091509150915091565b6060816000808273ffffffffffffffffffffffffffffffffffffffff1673ffffffffffffffffffffffffffffffffffffffff16815260200190815260200160002060020160009054906101000a900460ff166106f6576040517f08c379a00000000000000000000000000000000000000000000000000000000081526004016106ed906114c7565b60405180910390fd5b6000808473ffffffffffffffffffffffffffffffffffffffff1673ffffffffffffffffffffffffffffffffffffffff168152602001908152602001600020600101805480602002602001604051908101604052809291908181526020016000905b8282101561080357838290600052602060002001805461077690611164565b80601f01602080910402602001604051908101604052809291908181526020018280546107a290611164565b80156107ef5780601f106107c4576101008083540402835291602001916107ef565b820191906000526020600020905b8154815290600101906020018083116107d257829003601f168201915b505050505081526020019060010190610757565b50505050915050919050565b600160009054906101000a900473ffffffffffffffffffffffffffffffffffffffff1673ffffffffffffffffffffffffffffffffffffffff163373ffffffffffffffffffffffffffffffffffffffff161461089f576040517f08c379a000000000000000000000000000000000000000000000000000000000815260040161089690611003565b60405180910390fd5b600073ffffffffffffffffffffffffffffffffffffffff168173ffffffffffffffffffffffffffffffffffffffff160361090e576040517f08c379a000000000000000000000000000000000000000000000000000000000815260040161090590611533565b60405180910390fd5b80600160006101000a81548173ffffffffffffffffffffffffffffffffffffffff021916908373ffffffffffffffffffffffffffffffffffffffff16021790555050565b60008060008373ffffffffffffffffffffffffffffffffffffffff1673ffffffffffffffffffffffffffffffffffffffff16815260200190815260200160002060020160009054906101000a900460ff169050919050565b600160009054906101000a900473ffffffffffffffffffffffffffffffffffffffff1673ffffffffffffffffffffffffffffffffffffffff163373ffffffffffffffffffffffffffffffffffffffff1614610a3a576040517f08c379a0000000000000000000000000000000000000000000000000000000008152600401610a3190611003565b60405180910390fd5b826000808273ffffffffffffffffffffffffffffffffffffffff1673ffffffffffffffffffffffffffffffffffffffff16815260200190815260200160002060020160009054906101000a900460ff16610ac9576040517f08c379a0000000000000000000000000000000000000000000000000000000008152600401610ac0906114c7565b60405180910390fd5b60008383905011610b0f576040517f08c379a0000000000000000000000000000000000000000000000000000000008152600401610b069061159f565b60405180910390fd5b6000808573ffffffffffffffffffffffffffffffffffffffff1673ffffffffffffffffffffffffffffffffffffffff168152602001908152602001600020600101838390918060018154018082558091505060019003906000526020600020016000909192909192909192909192509182610b8b92919061134b565b508373ffffffffffffffffffffffffffffffffffffffff167ffadb2845ac408333d6ae8edb54f95c57bbeaf0c294ab693bfe92c40139dc63f68484604051610bd4929190611457565b60405180910390a250505050565b600160009054906101000a900473ffffffffffffffffffffffffffffffffffffffff1681565b600080fd5b600080fd5b600073ffffffffffffffffffffffffffffffffffffffff82169050919050565b6000610c3d82610c12565b9050919050565b610c4d81610c32565b8114610c5857600080fd5b50565b600081359050610c6a81610c44565b92915050565b600080fd5b600080fd5b600080fd5b60008083601f840112610c9557610c94610c70565b5b8235905067ffffffffffffffff811115610cb257610cb1610c75565b5b602083019150836001820283011115610cce57610ccd610c7a565b5b9250929050565b600080600060408486031215610cee57610ced610c08565b5b6000610cfc86828701610c5b565b935050602084013567ffffffffffffffff811115610d1d57610d1c610c0d565b5b610d2986828701610c7f565b92509250509250925092565b600060208284031215610d4b57610d4a610c08565b5b6000610d5984828501610c5b565b91505092915050565b600081519050919050565b600082825260208201905092915050565b60005b83811015610d9c578082015181840152602081019050610d81565b60008484015250505050565b6000601f19601f8301169050919050565b6000610dc482610d62565b610dce8185610d6d565b9350610dde818560208601610d7e565b610de781610da8565b840191505092915050565b600081519050919050565b600082825260208201905092915050565b6000819050602082019050919050565b600082825260208201905092915050565b6000610e3a82610d62565b610e448185610e1e565b9350610e54818560208601610d7e565b610e5d81610da8565b840191505092915050565b6000610e748383610e2f565b905092915050565b6000602082019050919050565b6000610e9482610df2565b610e9e8185610dfd565b935083602082028501610eb085610e0e565b8060005b85811015610eec5784840389528151610ecd8582610e68565b9450610ed883610e7c565b925060208a01995050600181019050610eb4565b50829750879550505050505092915050565b60006040820190508181036000830152610f188185610db9565b90508181036020830152610f2c8184610e89565b90509392505050565b60006020820190508181036000830152610f4f8184610e89565b905092915050565b60008115159050919050565b610f6c81610f57565b82525050565b6000602082019050610f876000830184610f63565b92915050565b610f9681610c32565b82525050565b6000602082019050610fb16000830184610f8d565b92915050565b7f4f6e6c792061646d696e2063616e2063616c6c20746869730000000000000000600082015250565b6000610fed601883610d6d565b9150610ff882610fb7565b602082019050919050565b6000602082019050818103600083015261101c81610fe0565b9050919050565b7f416c726561647920726567697374657265640000000000000000000000000000600082015250565b6000611059601283610d6d565b915061106482611023565b602082019050919050565b600060208201905081810360008301526110888161104c565b9050919050565b7f4e616d652063616e6e6f7420626520656d707479000000000000000000000000600082015250565b60006110c5601483610d6d565b91506110d08261108f565b602082019050919050565b600060208201905081810360008301526110f4816110b8565b9050919050565b600082905092915050565b7f4e487b7100000000000000000000000000000000000000000000000000000000600052604160045260246000fd5b7f4e487b7100000000000000000000000000000000000000000000000000000000600052602260045260246000fd5b6000600282049050600182168061117c57607f821691505b60208210810361118f5761118e611135565b5b50919050565b60008190508160005260206000209050919050565b60006020601f8301049050919050565b600082821b905092915050565b6000600883026111f77fffffffffffffffffffffffffffffffffffffffffffffffffffffffffffffffff826111ba565b61120186836111ba565b95508019841693508086168417925050509392505050565b6000819050919050565b6000819050919050565b600061124861124361123e84611219565b611223565b611219565b9050919050565b6000819050919050565b6112628361122d565b61127661126e8261124f565b8484546111c7565b825550505050565b600090565b61128b61127e565b611296818484611259565b505050565b5b818110156112ba576112af600082611283565b60018101905061129c565b5050565b601f8211156112ff576112d081611195565b6112d9846111aa565b810160208510156112e8578190505b6112fc6112f4856111aa565b83018261129b565b50505b505050565b600082821c905092915050565b600061132260001984600802611304565b1980831691505092915050565b600061133b8383611311565b9150826002028217905092915050565b61135583836110fb565b67ffffffffffffffff81111561136e5761136d611106565b5b6113788254611164565b6113838282856112be565b6000601f8311600181146113b257600084156113a0578287013590505b6113aa858261132f565b865550611412565b601f1984166113c086611195565b60005b828110156113e8578489013582556001820191506020850194506020810190506113c3565b868310156114055784890135611401601f891682611311565b8355505b6001600288020188555050505b50505050505050565b82818337600083830152505050565b60006114368385610d6d565b935061144383858461141b565b61144c83610da8565b840190509392505050565b6000602082019050818103600083015261147281848661142a565b90509392505050565b7f55736572206e6f74207265676973746572656400000000000000000000000000600082015250565b60006114b1601383610d6d565b91506114bc8261147b565b602082019050919050565b600060208201905081810360008301526114e0816114a4565b9050919050565b7f496e76616c696420616464726573730000000000000000000000000000000000600082015250565b600061151d600f83610d6d565b9150611528826114e7565b602082019050919050565b6000602082019050818103600083015261154c81611510565b9050919050565b7f4349442063616e6e6f7420626520656d70747900000000000000000000000000600082015250565b6000611589601383610d6d565b915061159482611553565b602082019050919050565b600060208201905081810360008301526115b88161157c565b905091905056fea264697066735822122045142c91f71e2b7e63a88200ce2254e05adbeb12e180e4c5054448ff0c9b4d5a64736f6c63430008180033",
  "linkReferences": {},
  "deployedLinkReferences": {}
}